{
  "_format": "hh-sol-artifact-1",
  "contractName": "NFTMarketplace",
  "sourceName": "contracts/NFTMarketplace.sol",
  "abi": [
    {
      "inputs": [],
      "stateMutability": "nonpayable",
      "type": "constructor"
    },
    {
      "anonymous": false,
      "inputs": [
        {
          "indexed": true,
          "internalType": "address",
          "name": "owner",
          "type": "address"
        },
        {
          "indexed": true,
          "internalType": "address",
          "name": "approved",
          "type": "address"
        },
        {
          "indexed": true,
          "internalType": "uint256",
          "name": "tokenId",
          "type": "uint256"
        }
      ],
      "name": "Approval",
      "type": "event"
    },
    {
      "anonymous": false,
      "inputs": [
        {
          "indexed": true,
          "internalType": "address",
          "name": "owner",
          "type": "address"
        },
        {
          "indexed": true,
          "internalType": "address",
          "name": "operator",
          "type": "address"
        },
        {
          "indexed": false,
          "internalType": "bool",
          "name": "approved",
          "type": "bool"
        }
      ],
      "name": "ApprovalForAll",
      "type": "event"
    },
    {
      "anonymous": false,
      "inputs": [
        {
          "indexed": true,
          "internalType": "uint256",
          "name": "tokenId",
          "type": "uint256"
        },
        {
          "indexed": false,
          "internalType": "address",
          "name": "seller",
          "type": "address"
        },
        {
          "indexed": false,
          "internalType": "address",
          "name": "owner",
          "type": "address"
        },
        {
          "indexed": false,
          "internalType": "uint256",
          "name": "price",
          "type": "uint256"
        },
        {
          "indexed": false,
          "internalType": "bool",
          "name": "sold",
          "type": "bool"
        }
      ],
      "name": "MarketItemCreated",
      "type": "event"
    },
    {
      "anonymous": false,
      "inputs": [
        {
          "indexed": true,
          "internalType": "address",
          "name": "from",
          "type": "address"
        },
        {
          "indexed": true,
          "internalType": "address",
          "name": "to",
          "type": "address"
        },
        {
          "indexed": true,
          "internalType": "uint256",
          "name": "tokenId",
          "type": "uint256"
        }
      ],
      "name": "Transfer",
      "type": "event"
    },
    {
      "inputs": [
        {
          "internalType": "address",
          "name": "to",
          "type": "address"
        },
        {
          "internalType": "uint256",
          "name": "tokenId",
          "type": "uint256"
        }
      ],
      "name": "approve",
      "outputs": [],
      "stateMutability": "nonpayable",
      "type": "function"
    },
    {
      "inputs": [
        {
          "internalType": "address",
          "name": "owner",
          "type": "address"
        }
      ],
      "name": "balanceOf",
      "outputs": [
        {
          "internalType": "uint256",
          "name": "",
          "type": "uint256"
        }
      ],
      "stateMutability": "view",
      "type": "function"
    },
    {
      "inputs": [
        {
          "internalType": "uint256",
          "name": "tokenId",
          "type": "uint256"
        }
      ],
      "name": "createMarketSale",
      "outputs": [],
      "stateMutability": "payable",
      "type": "function"
    },
    {
      "inputs": [
        {
          "internalType": "string",
          "name": "tokenURI",
          "type": "string"
        },
        {
          "internalType": "uint256",
          "name": "price",
          "type": "uint256"
        }
      ],
      "name": "createToken",
      "outputs": [
        {
          "internalType": "uint256",
          "name": "",
          "type": "uint256"
        }
      ],
      "stateMutability": "payable",
      "type": "function"
    },
    {
      "inputs": [],
      "name": "fetchItemsListed",
      "outputs": [
        {
          "components": [
            {
              "internalType": "uint256",
              "name": "tokenId",
              "type": "uint256"
            },
            {
              "internalType": "address payable",
              "name": "seller",
              "type": "address"
            },
            {
              "internalType": "address payable",
              "name": "owner",
              "type": "address"
            },
            {
              "internalType": "uint256",
              "name": "price",
              "type": "uint256"
            },
            {
              "internalType": "bool",
              "name": "sold",
              "type": "bool"
            }
          ],
          "internalType": "struct NFTMarketplace.MarketItem[]",
          "name": "",
          "type": "tuple[]"
        }
      ],
      "stateMutability": "view",
      "type": "function"
    },
    {
      "inputs": [],
      "name": "fetchMarketItems",
      "outputs": [
        {
          "components": [
            {
              "internalType": "uint256",
              "name": "tokenId",
              "type": "uint256"
            },
            {
              "internalType": "address payable",
              "name": "seller",
              "type": "address"
            },
            {
              "internalType": "address payable",
              "name": "owner",
              "type": "address"
            },
            {
              "internalType": "uint256",
              "name": "price",
              "type": "uint256"
            },
            {
              "internalType": "bool",
              "name": "sold",
              "type": "bool"
            }
          ],
          "internalType": "struct NFTMarketplace.MarketItem[]",
          "name": "",
          "type": "tuple[]"
        }
      ],
      "stateMutability": "view",
      "type": "function"
    },
    {
      "inputs": [],
      "name": "fetchMyNFTs",
      "outputs": [
        {
          "components": [
            {
              "internalType": "uint256",
              "name": "tokenId",
              "type": "uint256"
            },
            {
              "internalType": "address payable",
              "name": "seller",
              "type": "address"
            },
            {
              "internalType": "address payable",
              "name": "owner",
              "type": "address"
            },
            {
              "internalType": "uint256",
              "name": "price",
              "type": "uint256"
            },
            {
              "internalType": "bool",
              "name": "sold",
              "type": "bool"
            }
          ],
          "internalType": "struct NFTMarketplace.MarketItem[]",
          "name": "",
          "type": "tuple[]"
        }
      ],
      "stateMutability": "view",
      "type": "function"
    },
    {
      "inputs": [
        {
          "internalType": "uint256",
          "name": "tokenId",
          "type": "uint256"
        }
      ],
      "name": "getApproved",
      "outputs": [
        {
          "internalType": "address",
          "name": "",
          "type": "address"
        }
      ],
      "stateMutability": "view",
      "type": "function"
    },
    {
      "inputs": [],
      "name": "getListingPrice",
      "outputs": [
        {
          "internalType": "uint256",
          "name": "",
          "type": "uint256"
        }
      ],
      "stateMutability": "view",
      "type": "function"
    },
    {
      "inputs": [
        {
          "internalType": "address",
          "name": "owner",
          "type": "address"
        },
        {
          "internalType": "address",
          "name": "operator",
          "type": "address"
        }
      ],
      "name": "isApprovedForAll",
      "outputs": [
        {
          "internalType": "bool",
          "name": "",
          "type": "bool"
        }
      ],
      "stateMutability": "view",
      "type": "function"
    },
    {
      "inputs": [],
      "name": "name",
      "outputs": [
        {
          "internalType": "string",
          "name": "",
          "type": "string"
        }
      ],
      "stateMutability": "view",
      "type": "function"
    },
    {
      "inputs": [
        {
          "internalType": "uint256",
          "name": "tokenId",
          "type": "uint256"
        }
      ],
      "name": "ownerOf",
      "outputs": [
        {
          "internalType": "address",
          "name": "",
          "type": "address"
        }
      ],
      "stateMutability": "view",
      "type": "function"
    },
    {
      "inputs": [
        {
          "internalType": "uint256",
          "name": "tokenId",
          "type": "uint256"
        },
        {
          "internalType": "uint256",
          "name": "price",
          "type": "uint256"
        }
      ],
      "name": "resellToken",
      "outputs": [],
      "stateMutability": "payable",
      "type": "function"
    },
    {
      "inputs": [
        {
          "internalType": "address",
          "name": "from",
          "type": "address"
        },
        {
          "internalType": "address",
          "name": "to",
          "type": "address"
        },
        {
          "internalType": "uint256",
          "name": "tokenId",
          "type": "uint256"
        }
      ],
      "name": "safeTransferFrom",
      "outputs": [],
      "stateMutability": "nonpayable",
      "type": "function"
    },
    {
      "inputs": [
        {
          "internalType": "address",
          "name": "from",
          "type": "address"
        },
        {
          "internalType": "address",
          "name": "to",
          "type": "address"
        },
        {
          "internalType": "uint256",
          "name": "tokenId",
          "type": "uint256"
        },
        {
          "internalType": "bytes",
          "name": "data",
          "type": "bytes"
        }
      ],
      "name": "safeTransferFrom",
      "outputs": [],
      "stateMutability": "nonpayable",
      "type": "function"
    },
    {
      "inputs": [
        {
          "internalType": "address",
          "name": "operator",
          "type": "address"
        },
        {
          "internalType": "bool",
          "name": "approved",
          "type": "bool"
        }
      ],
      "name": "setApprovalForAll",
      "outputs": [],
      "stateMutability": "nonpayable",
      "type": "function"
    },
    {
      "inputs": [
        {
          "internalType": "bytes4",
          "name": "interfaceId",
          "type": "bytes4"
        }
      ],
      "name": "supportsInterface",
      "outputs": [
        {
          "internalType": "bool",
          "name": "",
          "type": "bool"
        }
      ],
      "stateMutability": "view",
      "type": "function"
    },
    {
      "inputs": [],
      "name": "symbol",
      "outputs": [
        {
          "internalType": "string",
          "name": "",
          "type": "string"
        }
      ],
      "stateMutability": "view",
      "type": "function"
    },
    {
      "inputs": [
        {
          "internalType": "uint256",
          "name": "tokenId",
          "type": "uint256"
        }
      ],
      "name": "tokenURI",
      "outputs": [
        {
          "internalType": "string",
          "name": "",
          "type": "string"
        }
      ],
      "stateMutability": "view",
      "type": "function"
    },
    {
      "inputs": [
        {
          "internalType": "address",
          "name": "from",
          "type": "address"
        },
        {
          "internalType": "address",
          "name": "to",
          "type": "address"
        },
        {
          "internalType": "uint256",
          "name": "tokenId",
          "type": "uint256"
        }
      ],
      "name": "transferFrom",
      "outputs": [],
      "stateMutability": "nonpayable",
      "type": "function"
    },
    {
      "inputs": [
        {
          "internalType": "uint256",
          "name": "_listingPrice",
          "type": "uint256"
        }
      ],
      "name": "updateListingPrice",
      "outputs": [],
      "stateMutability": "payable",
      "type": "function"
    }
  ],
  "bytecode": "0x60806040526658d15e176280006009553480156200001c57600080fd5b50604080518082018252600b81526a4c6f726120546f6b656e7360a81b6020808301918252835180850190945260048452634c4f524160e01b9084015281519192916200006c916000916200009d565b508051620000829060019060208401906200009d565b5050600a80546001600160a01b031916331790555062000180565b828054620000ab9062000143565b90600052602060002090601f016020900481019282620000cf57600085556200011a565b82601f10620000ea57805160ff19168380011785556200011a565b828001600101855582156200011a579182015b828111156200011a578251825591602001919060010190620000fd565b50620001289291506200012c565b5090565b5b808211156200012857600081556001016200012d565b600181811c908216806200015857607f821691505b602082108114156200017a57634e487b7160e01b600052602260045260246000fd5b50919050565b61221f80620001906000396000f3fe60806040526004361061012a5760003560e01c80636352211e116100ab578063ae677aa31161006f578063ae677aa314610313578063b88d4fde14610326578063be9af53614610346578063c87b56dd14610359578063e219fc7514610379578063e985e9c51461038c57600080fd5b80636352211e1461028b57806370a08231146102ab57806372b3b620146102cb57806395d89b41146102de578063a22cb465146102f357600080fd5b806312e85585116100f257806312e8558514610202578063202e37401461022157806323b872dd1461023657806342842e0e1461025657806345f8fa801461027657600080fd5b806301ffc9a71461012f57806306fdde0314610164578063081812fc14610186578063095ea7b3146101be5780630f08efe0146101e0575b600080fd5b34801561013b57600080fd5b5061014f61014a366004611de6565b6103d5565b60405190151581526020015b60405180910390f35b34801561017057600080fd5b50610179610427565b60405161015b9190611fc1565b34801561019257600080fd5b506101a66101a1366004611e74565b6104b9565b6040516001600160a01b03909116815260200161015b565b3480156101ca57600080fd5b506101de6101d9366004611dbd565b6104e0565b005b3480156101ec57600080fd5b506101f56105fb565b60405161015b9190611f45565b34801561020e57600080fd5b506009545b60405190815260200161015b565b34801561022d57600080fd5b506101f56107af565b34801561024257600080fd5b506101de610251366004611ccf565b6109a1565b34801561026257600080fd5b506101de610271366004611ccf565b6109d2565b34801561028257600080fd5b506101f56109ed565b34801561029757600080fd5b506101a66102a6366004611e74565b610bdf565b3480156102b757600080fd5b506102136102c6366004611c83565b610c3f565b6102136102d9366004611e1e565b610cc5565b3480156102ea57600080fd5b50610179610d07565b3480156102ff57600080fd5b506101de61030e366004611d83565b610d16565b6101de610321366004611e74565b610d25565b34801561033257600080fd5b506101de610341366004611d0a565b610da0565b6101de610354366004611e74565b610dd8565b34801561036557600080fd5b50610179610374366004611e74565b610f40565b6101de610387366004611e8c565b611051565b34801561039857600080fd5b5061014f6103a7366004611c9d565b6001600160a01b03918216600090815260056020908152604080832093909416825291909152205460ff1690565b60006001600160e01b031982166380ac58cd60e01b148061040657506001600160e01b03198216635b5e139f60e01b145b8061042157506301ffc9a760e01b6001600160e01b03198316145b92915050565b60606000805461043690612127565b80601f016020809104026020016040519081016040528092919081815260200182805461046290612127565b80156104af5780601f10610484576101008083540402835291602001916104af565b820191906000526020600020905b81548152906001019060200180831161049257829003601f168201915b5050505050905090565b60006104c482611149565b506000908152600460205260409020546001600160a01b031690565b60006104eb82610bdf565b9050806001600160a01b0316836001600160a01b0316141561055e5760405162461bcd60e51b815260206004820152602160248201527f4552433732313a20617070726f76616c20746f2063757272656e74206f776e656044820152603960f91b60648201526084015b60405180910390fd5b336001600160a01b038216148061057a575061057a81336103a7565b6105ec5760405162461bcd60e51b815260206004820152603e60248201527f4552433732313a20617070726f76652063616c6c6572206973206e6f7420746f60448201527f6b656e206f776e6572206e6f7220617070726f76656420666f7220616c6c00006064820152608401610555565b6105f683836111ab565b505050565b6060600061060860075490565b9050600061061560085490565b60075461062291906120e4565b90506000808267ffffffffffffffff81111561064e57634e487b7160e01b600052604160045260246000fd5b6040519080825280602002602001820160405280156106a757816020015b6040805160a08101825260008082526020808301829052928201819052606082018190526080820152825260001990920191018161066c5790505b50905060005b848110156107a65730600b60006106c58460016120b8565b81526020810191909152604001600020600201546001600160a01b031614156107945760006106f58260016120b8565b6000818152600b6020908152604091829020825160a0810184528154815260018201546001600160a01b039081169382019390935260028201549092169282019290925260038201546060820152600482015460ff16151560808201528551929350909185908790811061077957634e487b7160e01b600052603260045260246000fd5b602090810291909101015261078f6001866120b8565b945050505b8061079e81612162565b9150506106ad565b50949350505050565b606060006107bc60075490565b905060008060005b8381101561081f5733600b60006107dc8460016120b8565b81526020810191909152604001600020600201546001600160a01b0316141561080d5761080a6001846120b8565b92505b8061081781612162565b9150506107c4565b5060008267ffffffffffffffff81111561084957634e487b7160e01b600052604160045260246000fd5b6040519080825280602002602001820160405280156108a257816020015b6040805160a0810182526000808252602080830182905292820181905260608201819052608082015282526000199092019101816108675790505b50905060005b848110156107a65733600b60006108c08460016120b8565b81526020810191909152604001600020600201546001600160a01b0316141561098f5760006108f08260016120b8565b6000818152600b6020908152604091829020825160a0810184528154815260018201546001600160a01b039081169382019390935260028201549092169282019290925260038201546060820152600482015460ff16151560808201528551929350909185908790811061097457634e487b7160e01b600052603260045260246000fd5b602090810291909101015261098a6001866120b8565b945050505b8061099981612162565b9150506108a8565b6109ab3382611219565b6109c75760405162461bcd60e51b81526004016105559061206a565b6105f6838383611297565b6105f683838360405180602001604052806000815250610da0565b606060006109fa60075490565b905060008060005b83811015610a5d5733600b6000610a1a8460016120b8565b81526020810191909152604001600020600101546001600160a01b03161415610a4b57610a486001846120b8565b92505b80610a5581612162565b915050610a02565b5060008267ffffffffffffffff811115610a8757634e487b7160e01b600052604160045260246000fd5b604051908082528060200260200182016040528015610ae057816020015b6040805160a081018252600080825260208083018290529282018190526060820181905260808201528252600019909201910181610aa55790505b50905060005b848110156107a65733600b6000610afe8460016120b8565b81526020810191909152604001600020600101546001600160a01b03161415610bcd576000610b2e8260016120b8565b6000818152600b6020908152604091829020825160a0810184528154815260018201546001600160a01b039081169382019390935260028201549092169282019290925260038201546060820152600482015460ff161515608082015285519293509091859087908110610bb257634e487b7160e01b600052603260045260246000fd5b6020908102919091010152610bc86001866120b8565b945050505b80610bd781612162565b915050610ae6565b6000818152600260205260408120546001600160a01b0316806104215760405162461bcd60e51b8152602060048201526018602482015277115490cdcc8c4e881a5b9d985b1a59081d1bdad95b88125160421b6044820152606401610555565b60006001600160a01b038216610ca95760405162461bcd60e51b815260206004820152602960248201527f4552433732313a2061646472657373207a65726f206973206e6f7420612076616044820152683634b21037bbb732b960b91b6064820152608401610555565b506001600160a01b031660009081526003602052604090205490565b6000610cd5600780546001019055565b6000610ce060075490565b9050610cec3382611433565b610cf68185611575565b610d00818461160f565b9392505050565b60606001805461043690612127565b610d21338383611765565b5050565b600a546001600160a01b03163314610d9b5760405162461bcd60e51b815260206004820152603360248201527f4f6e6c79206d61726b6574706c616365206f776e65722063616e2075706461746044820152726520746865206c697374696e6720707269636560681b6064820152608401610555565b600955565b610daa3383611219565b610dc65760405162461bcd60e51b81526004016105559061206a565b610dd284848484611834565b50505050565b6000818152600b6020526040902060030154348114610e61576040805162461bcd60e51b81526020600482015260248101919091527f506c65616365207375626d6974207468652061736b696e67207072696365206960448201527f6e206f7264657220746f20636f6d706c697465207468652070757263686173656064820152608401610555565b6000828152600b602052604090206002810180546001600160a01b0319908116331790915560048201805460ff1916600190811790915590910180549091169055610eb0600880546001019055565b610ebb303384611297565b600a546009546040516001600160a01b039092169181156108fc0291906000818181858888f19350505050158015610ef7573d6000803e3d6000fd5b506000828152600b60205260408082206001015490516001600160a01b03909116913480156108fc02929091818181858888f193505050501580156105f6573d6000803e3d6000fd5b6060610f4b82611149565b60008281526006602052604081208054610f6490612127565b80601f0160208091040260200160405190810160405280929190818152602001828054610f9090612127565b8015610fdd5780601f10610fb257610100808354040283529160200191610fdd565b820191906000526020600020905b815481529060010190602001808311610fc057829003601f168201915b505050505090506000610ffb60408051602081019091526000815290565b905080516000141561100e575092915050565b815115611040578082604051602001611028929190611ed9565b60405160208183030381529060405292505050919050565b61104984611867565b949350505050565b6000828152600b60205260409020600201546001600160a01b031633146110cd5760405162461bcd60e51b815260206004820152602a60248201527f4f6e6c79206974656d206f776e65722063616e20706572666f726d20746869736044820152691037b832b930ba34b7b760b11b6064820152608401610555565b60095434146110ee5760405162461bcd60e51b815260040161055590612026565b6000828152600b6020526040902060048101805460ff19169055600381018290556001810180546001600160a01b03199081163317909155600290910180549091163017905561113e60086118da565b610d21333084611297565b6000818152600260205260409020546001600160a01b03166111a85760405162461bcd60e51b8152602060048201526018602482015277115490cdcc8c4e881a5b9d985b1a59081d1bdad95b88125160421b6044820152606401610555565b50565b600081815260046020526040902080546001600160a01b0319166001600160a01b03841690811790915581906111e082610bdf565b6001600160a01b03167f8c5be1e5ebec7d5bd14f71427d1e84f3dd0314c0f7b2291e5b200ac8c7c3b92560405160405180910390a45050565b60008061122583610bdf565b9050806001600160a01b0316846001600160a01b0316148061126c57506001600160a01b0380821660009081526005602090815260408083209388168352929052205460ff165b806110495750836001600160a01b0316611285846104b9565b6001600160a01b031614949350505050565b826001600160a01b03166112aa82610bdf565b6001600160a01b03161461130e5760405162461bcd60e51b815260206004820152602560248201527f4552433732313a207472616e736665722066726f6d20696e636f72726563742060448201526437bbb732b960d91b6064820152608401610555565b6001600160a01b0382166113705760405162461bcd60e51b8152602060048201526024808201527f4552433732313a207472616e7366657220746f20746865207a65726f206164646044820152637265737360e01b6064820152608401610555565b61137b6000826111ab565b6001600160a01b03831660009081526003602052604081208054600192906113a49084906120e4565b90915550506001600160a01b03821660009081526003602052604081208054600192906113d29084906120b8565b909155505060008181526002602052604080822080546001600160a01b0319166001600160a01b0386811691821790925591518493918716917fddf252ad1be2c89b69c2b068fc378daa952ba7f163c4a11628f55a4df523b3ef91a4505050565b6001600160a01b0382166114895760405162461bcd60e51b815260206004820181905260248201527f4552433732313a206d696e7420746f20746865207a65726f20616464726573736044820152606401610555565b6000818152600260205260409020546001600160a01b0316156114ee5760405162461bcd60e51b815260206004820152601c60248201527f4552433732313a20746f6b656e20616c7265616479206d696e746564000000006044820152606401610555565b6001600160a01b03821660009081526003602052604081208054600192906115179084906120b8565b909155505060008181526002602052604080822080546001600160a01b0319166001600160a01b03861690811790915590518392907fddf252ad1be2c89b69c2b068fc378daa952ba7f163c4a11628f55a4df523b3ef908290a45050565b6000828152600260205260409020546001600160a01b03166115f05760405162461bcd60e51b815260206004820152602e60248201527f45524337323155524953746f726167653a2055524920736574206f66206e6f6e60448201526d32bc34b9ba32b73a103a37b5b2b760911b6064820152608401610555565b600082815260066020908152604090912082516105f692840190611b58565b6000811161165f5760405162461bcd60e51b815260206004820152601860248201527f5072696365206d757374206265206174206c65617374203100000000000000006044820152606401610555565b60095434146116805760405162461bcd60e51b815260040161055590612026565b6040805160a08101825283815233602080830182815230848601818152606086018881526000608088018181528b8252600b909652979097209551865591516001860180546001600160a01b03199081166001600160a01b0393841617909155925160028701805490941691161790915593516003840155516004909201805460ff1916921515929092179091556117189184611297565b604080513381523060208201529081018290526000606082015282907fb640004f1d14576d0c209e240cad0410e0d8c0c33a09375861fbadae2588a98d9060800160405180910390a25050565b816001600160a01b0316836001600160a01b031614156117c75760405162461bcd60e51b815260206004820152601960248201527f4552433732313a20617070726f766520746f2063616c6c6572000000000000006044820152606401610555565b6001600160a01b03838116600081815260056020908152604080832094871680845294825291829020805460ff191686151590811790915591519182527f17307eab39ab6107e8899845ad3d59bd9653f200f220920489ca2b5937696c31910160405180910390a3505050565b61183f848484611297565b61184b84848484611931565b610dd25760405162461bcd60e51b815260040161055590611fd4565b606061187282611149565b600061188960408051602081019091526000815290565b905060008151116118a95760405180602001604052806000815250610d00565b806118b384611a3e565b6040516020016118c4929190611ed9565b6040516020818303038152906040529392505050565b8054806119295760405162461bcd60e51b815260206004820152601b60248201527f436f756e7465723a2064656372656d656e74206f766572666c6f7700000000006044820152606401610555565b600019019055565b60006001600160a01b0384163b15611a3357604051630a85bd0160e11b81526001600160a01b0385169063150b7a0290611975903390899088908890600401611f08565b602060405180830381600087803b15801561198f57600080fd5b505af19250505080156119bf575060408051601f3d908101601f191682019092526119bc91810190611e02565b60015b611a19573d8080156119ed576040519150601f19603f3d011682016040523d82523d6000602084013e6119f2565b606091505b508051611a115760405162461bcd60e51b815260040161055590611fd4565b805181602001fd5b6001600160e01b031916630a85bd0160e11b149050611049565b506001949350505050565b606081611a625750506040805180820190915260018152600360fc1b602082015290565b8160005b8115611a8c5780611a7681612162565b9150611a859050600a836120d0565b9150611a66565b60008167ffffffffffffffff811115611ab557634e487b7160e01b600052604160045260246000fd5b6040519080825280601f01601f191660200182016040528015611adf576020820181803683370190505b5090505b841561104957611af46001836120e4565b9150611b01600a8661217d565b611b0c9060306120b8565b60f81b818381518110611b2f57634e487b7160e01b600052603260045260246000fd5b60200101906001600160f81b031916908160001a905350611b51600a866120d0565b9450611ae3565b828054611b6490612127565b90600052602060002090601f016020900481019282611b865760008555611bcc565b82601f10611b9f57805160ff1916838001178555611bcc565b82800160010185558215611bcc579182015b82811115611bcc578251825591602001919060010190611bb1565b50611bd8929150611bdc565b5090565b5b80821115611bd85760008155600101611bdd565b600067ffffffffffffffff80841115611c0c57611c0c6121bd565b604051601f8501601f19908116603f01168101908282118183101715611c3457611c346121bd565b81604052809350858152868686011115611c4d57600080fd5b858560208301376000602087830101525050509392505050565b80356001600160a01b0381168114611c7e57600080fd5b919050565b600060208284031215611c94578081fd5b610d0082611c67565b60008060408385031215611caf578081fd5b611cb883611c67565b9150611cc660208401611c67565b90509250929050565b600080600060608486031215611ce3578081fd5b611cec84611c67565b9250611cfa60208501611c67565b9150604084013590509250925092565b60008060008060808587031215611d1f578081fd5b611d2885611c67565b9350611d3660208601611c67565b925060408501359150606085013567ffffffffffffffff811115611d58578182fd5b8501601f81018713611d68578182fd5b611d7787823560208401611bf1565b91505092959194509250565b60008060408385031215611d95578182fd5b611d9e83611c67565b915060208301358015158114611db2578182fd5b809150509250929050565b60008060408385031215611dcf578182fd5b611dd883611c67565b946020939093013593505050565b600060208284031215611df7578081fd5b8135610d00816121d3565b600060208284031215611e13578081fd5b8151610d00816121d3565b60008060408385031215611e30578182fd5b823567ffffffffffffffff811115611e46578283fd5b8301601f81018513611e56578283fd5b611e6585823560208401611bf1565b95602094909401359450505050565b600060208284031215611e85578081fd5b5035919050565b60008060408385031215611e9e578182fd5b50508035926020909101359150565b60008151808452611ec58160208601602086016120fb565b601f01601f19169290920160200192915050565b60008351611eeb8184602088016120fb565b835190830190611eff8183602088016120fb565b01949350505050565b6001600160a01b0385811682528416602082015260408101839052608060608201819052600090611f3b90830184611ead565b9695505050505050565b602080825282518282018190526000919060409081850190868401855b82811015611fb457815180518552868101516001600160a01b03908116888701528682015116868601526060808201519086015260809081015115159085015260a09093019290850190600101611f62565b5091979650505050505050565b602081526000610d006020830184611ead565b60208082526032908201527f4552433732313a207472616e7366657220746f206e6f6e20455243373231526560408201527131b2b4bb32b91034b6b83632b6b2b73a32b960711b606082015260800190565b60208082526024908201527f5072696365206d75737420626520657175616c20746f206c697374696e6720706040820152637269636560e01b606082015260800190565b6020808252602e908201527f4552433732313a2063616c6c6572206973206e6f7420746f6b656e206f776e6560408201526d1c881b9bdc88185c1c1c9bdd995960921b606082015260800190565b600082198211156120cb576120cb612191565b500190565b6000826120df576120df6121a7565b500490565b6000828210156120f6576120f6612191565b500390565b60005b838110156121165781810151838201526020016120fe565b83811115610dd25750506000910152565b600181811c9082168061213b57607f821691505b6020821081141561215c57634e487b7160e01b600052602260045260246000fd5b50919050565b600060001982141561217657612176612191565b5060010190565b60008261218c5761218c6121a7565b500690565b634e487b7160e01b600052601160045260246000fd5b634e487b7160e01b600052601260045260246000fd5b634e487b7160e01b600052604160045260246000fd5b6001600160e01b0319811681146111a857600080fdfea264697066735822122076ecc4ff0414f4cdca657cf52ae73eb4e0a94206c31e16f7e695740c0c6a968764736f6c63430008040033",
  "linkReferences": {},
  "deployedLinkReferences": {}
}